:100000000C9461000C947E000C947E000C947E0095
:100010000C947E000C947E000C947E000C947E0068
:100020000C947E000C947E000C947E000C947E0058
:100030000C947E000C947E000C947E000C947E0048
:100040000C9477010C947E000C947E000C947E003E
:100050000C947E000C947E000C947E000C947E0028
:100060000C947E000C947E00000000002400270009
:100070002A0000000000250028002B0000000000DE
:1000800023002600290004040404040404040202DA
:100090000202020203030303030301020408102007
:1000A0004080010204081020010204081020000012
:1000B0000007000201000003040600000000000029
:1000C000000011241FBECFEFD8E0DEBFCDBF11E08E
:1000D000A0E0B1E0E8EFF3E002C005900D92A2309D
:1000E000B107D9F711E0A2E0B1E001C01D92AF3035
:1000F000B107E1F70E9470010C94FA010C94000022
:10010000809102010E941D019093050180930401DA
:10011000019721F48091000160E003C0809100010B
:1001200061E00E94C50008958091000161E00E9495
:100130009F008091020160E00E949F000895482F77
:1001400050E0CA0186569F4FFC0124914A575F4FE9
:10015000FA0184918823C1F0E82FF0E0EE0FFF1F31
:10016000E859FF4FA591B491662341F49FB7F894E5
:100170008C91209582238C939FBF08959FB7F8940C
:100180008C91822B8C939FBF0895482F50E0CA0119
:1001900082559F4FFC012491CA0186569F4FFC0156
:1001A00034914A575F4FFA019491992309F444C05E
:1001B000222351F1233071F0243028F42130A1F0B2
:1001C000223011F514C02630B1F02730C1F02430B0
:1001D000D9F404C0809180008F7703C080918000A3
:1001E0008F7D8093800010C084B58F7702C084B566
:1001F0008F7D84BD09C08091B0008F7703C080914E
:10020000B0008F7D8093B000E92FF0E0EE0FFF1F6C
:10021000EE58FF4FA591B491662341F49FB7F8942F
:100220008C91309583238C939FBF08959FB7F8944A
:100230008C91832B8C939FBF0895682F70E0CB0126
:1002400082559F4FFC012491CB0186569F4FFC01A4
:1002500044916A577F4FFB019491992319F420E050
:1002600030E03CC0222351F1233071F0243028F4D7
:100270002130A1F0223011F514C02630B1F0273022
:10028000C1F02430D9F404C0809180008F7703C07E
:10029000809180008F7D8093800010C084B58F771F
:1002A00002C084B58F7D84BD09C08091B0008F7776
:1002B00003C08091B0008F7D8093B000892F90E0C3
:1002C000880F991F84589F4FFC01A591B4918C9180
:1002D00020E030E0842311F021E030E0C9010895EE
:1002E0000E94BF010E9494000E948000FDCF1F92D7
:1002F0000F920FB60F9211242F933F938F939F93DA
:10030000AF93BF9380910A0190910B01A0910C01D2
:10031000B0910D0130910E010196A11DB11D232F49
:100320002D5F2D3720F02D570196A11DB11D209373
:100330000E0180930A0190930B01A0930C01B093DE
:100340000D018091060190910701A0910801B091E3
:1003500009010196A11DB11D80930601909307012B
:10036000A0930801B0930901BF91AF919F918F9124
:100370003F912F910F900FBE0F901F90189578947A
:1003800084B5826084BD84B5816084BD85B582609A
:1003900085BD85B5816085BDEEE6F0E08081816038
:1003A0008083E1E8F0E01082808182608083808138
:1003B00081608083E0E8F0E0808181608083E1EB10
:1003C000F0E0808184608083E0EBF0E080818160F8
:1003D0008083EAE7F0E080818460808380818260AE
:1003E0008083808181608083808180688083109297
:0803F000C1000895F894FFCF4D
:0203F8000D00F6
:00000001FF
